{"abi":[{"type":"constructor","inputs":[{"name":"_funder","type":"address","internalType":"address"},{"name":"_builder","type":"address","internalType":"address"},{"name":"_token","type":"address","internalType":"address"},{"name":"_arbiter","type":"address","internalType":"address"},{"name":"_milestones","type":"tuple[]","internalType":"struct MilestoneEscrow.Milestone[]","components":[{"name":"title","type":"string","internalType":"string"},{"name":"description","type":"string","internalType":"string"},{"name":"amount","type":"uint256","internalType":"uint256"},{"name":"verifier","type":"address","internalType":"address"},{"name":"verifierParams","type":"bytes","internalType":"bytes"},{"name":"deadline","type":"uint256","internalType":"uint256"},{"name":"status","type":"uint8","internalType":"enum MilestoneEscrow.MilestoneStatus"},{"name":"isOptimistic","type":"bool","internalType":"bool"},{"name":"claimedAt","type":"uint256","internalType":"uint256"}]}],"stateMutability":"nonpayable"},{"type":"function","name":"CHALLENGE_WINDOW","inputs":[],"outputs":[{"name":"","type":"uint256","internalType":"uint256"}],"stateMutability":"view"},{"type":"function","name":"arbiter","inputs":[],"outputs":[{"name":"","type":"address","internalType":"address"}],"stateMutability":"view"},{"type":"function","name":"builder","inputs":[],"outputs":[{"name":"","type":"address","internalType":"address"}],"stateMutability":"view"},{"type":"function","name":"cancelApproved","inputs":[{"name":"","type":"address","internalType":"address"}],"outputs":[{"name":"","type":"bool","internalType":"bool"}],"stateMutability":"view"},{"type":"function","name":"cancelEscrow","inputs":[],"outputs":[],"stateMutability":"nonpayable"},{"type":"function","name":"cancelled","inputs":[],"outputs":[{"name":"","type":"bool","internalType":"bool"}],"stateMutability":"view"},{"type":"function","name":"claimMilestone","inputs":[{"name":"milestoneIndex","type":"uint256","internalType":"uint256"}],"outputs":[],"stateMutability":"nonpayable"},{"type":"function","name":"disputeMilestone","inputs":[{"name":"milestoneIndex","type":"uint256","internalType":"uint256"}],"outputs":[],"stateMutability":"nonpayable"},{"type":"function","name":"funder","inputs":[],"outputs":[{"name":"","type":"address","internalType":"address"}],"stateMutability":"view"},{"type":"function","name":"lockFunds","inputs":[{"name":"amount","type":"uint256","internalType":"uint256"}],"outputs":[],"stateMutability":"nonpayable"},{"type":"function","name":"milestones","inputs":[{"name":"","type":"uint256","internalType":"uint256"}],"outputs":[{"name":"title","type":"string","internalType":"string"},{"name":"description","type":"string","internalType":"string"},{"name":"amount","type":"uint256","internalType":"uint256"},{"name":"verifier","type":"address","internalType":"address"},{"name":"verifierParams","type":"bytes","internalType":"bytes"},{"name":"deadline","type":"uint256","internalType":"uint256"},{"name":"status","type":"uint8","internalType":"enum MilestoneEscrow.MilestoneStatus"},{"name":"isOptimistic","type":"bool","internalType":"bool"},{"name":"claimedAt","type":"uint256","internalType":"uint256"}],"stateMutability":"view"},{"type":"function","name":"releaseMilestone","inputs":[{"name":"milestoneIndex","type":"uint256","internalType":"uint256"}],"outputs":[],"stateMutability":"nonpayable"},{"type":"function","name":"releasedAmount","inputs":[],"outputs":[{"name":"","type":"uint256","internalType":"uint256"}],"stateMutability":"view"},{"type":"function","name":"resolveDispute","inputs":[{"name":"milestoneIndex","type":"uint256","internalType":"uint256"},{"name":"builderWins","type":"bool","internalType":"bool"}],"outputs":[],"stateMutability":"nonpayable"},{"type":"function","name":"status","inputs":[],"outputs":[{"name":"","type":"uint8","internalType":"enum MilestoneEscrow.EscrowStatus"}],"stateMutability":"view"},{"type":"function","name":"token","inputs":[],"outputs":[{"name":"","type":"address","internalType":"address"}],"stateMutability":"view"},{"type":"function","name":"totalAmount","inputs":[],"outputs":[{"name":"","type":"uint256","internalType":"uint256"}],"stateMutability":"view"},{"type":"event","name":"DisputeResolved","inputs":[{"name":"milestoneIndex","type":"uint256","indexed":true,"internalType":"uint256"},{"name":"builderWins","type":"bool","indexed":false,"internalType":"bool"}],"anonymous":false},{"type":"event","name":"EscrowCancelled","inputs":[],"anonymous":false},{"type":"event","name":"EscrowCreated","inputs":[{"name":"funder","type":"address","indexed":false,"internalType":"address"},{"name":"builder","type":"address","indexed":false,"internalType":"address"},{"name":"totalAmount","type":"uint256","indexed":false,"internalType":"uint256"}],"anonymous":false},{"type":"event","name":"MilestoneClaimed","inputs":[{"name":"milestoneIndex","type":"uint256","indexed":true,"internalType":"uint256"},{"name":"builder","type":"address","indexed":false,"internalType":"address"}],"anonymous":false},{"type":"event","name":"MilestoneDisputed","inputs":[{"name":"milestoneIndex","type":"uint256","indexed":true,"internalType":"uint256"},{"name":"funder","type":"address","indexed":false,"internalType":"address"}],"anonymous":false},{"type":"event","name":"MilestoneReleased","inputs":[{"name":"milestoneIndex","type":"uint256","indexed":true,"internalType":"uint256"},{"name":"amount","type":"uint256","indexed":false,"internalType":"uint256"}],"anonymous":false},{"type":"error","name":"ReentrancyGuardReentrantCall","inputs":[]},{"type":"error","name":"SafeERC20FailedOperation","inputs":[{"name":"token","type":"address","internalType":"address"}]}],"bytecode":{"object":"0x608060405234801561000f575f5ffd5b506040516121d23803806121d283398101604081905261002e91610609565b60017f9b779b17422d0df92223018b32b4d1fa46e071723d6817e2486d003becc55f00556001600160a01b03851661009f5760405162461bcd60e51b815260206004820152600f60248201526e2d32b9379036b9b390333ab73232b960891b60448201526064015b60405180910390fd5b6001600160a01b0384166100e85760405162461bcd60e51b815260206004820152601060248201526f2d32b9379036b9b390313ab4b63232b960811b6044820152606401610096565b6001600160a01b0383166101335760405162461bcd60e51b81526020600482015260126024820152712d32b9379030b2323932b9b9903a37b5b2b760711b6044820152606401610096565b6001600160a01b0382166101895760405162461bcd60e51b815260206004820152601460248201527f5a65726f206164647265737320617262697465720000000000000000000000006044820152606401610096565b846001600160a01b0316826001600160a01b0316141580156101bd5750836001600160a01b0316826001600160a01b031614155b6102095760405162461bcd60e51b815260206004820152601660248201527f41726269746572206973207061727469636970616e74000000000000000000006044820152606401610096565b5f81511161024c5760405162461bcd60e51b815260206004820152601060248201526f456d707479206d696c6573746f6e657360801b6044820152606401610096565b60148151111561029e5760405162461bcd60e51b815260206004820152601360248201527f546f6f206d616e79206d696c6573746f6e6573000000000000000000000000006044820152606401610096565b5f805b8251811015610442575f6001600160a01b03168382815181106102c6576102c66107ff565b6020026020010151606001516001600160a01b0316036103185760405162461bcd60e51b815260206004820152600d60248201526c2d32b937903b32b934b334b2b960991b6044820152606401610096565b82818151811061032a5761032a6107ff565b602002602001015160400151826103419190610813565b91506007838281518110610357576103576107ff565b60209081029190910181015182546001810184555f93845291909220825160089092020190819061038890826108bc565b506020820151600182019061039d90826108bc565b506040820151600282015560608201516003820180546001600160a01b0319166001600160a01b03909216919091179055608082015160048201906103e290826108bc565b5060a0820151600582015560c082015160068201805460ff1916600183600481111561041057610410610976565b021790555060e082015160068201805461ff0019166101009215158302179055909101516007909101556001016102a1565b505f81116104925760405162461bcd60e51b815260206004820152601460248201527f53756d206d75737420626520706f7369746976650000000000000000000000006044820152606401610096565b5f80546001600160a01b03199081166001600160a01b03988916179091556001805482169688169690961790955560028054861694871694909417909355506003805490931693169290921790556004556006805461ff001916905561098a565b80516001600160a01b0381168114610509575f5ffd5b919050565b634e487b7160e01b5f52604160045260245ffd5b60405161012081016001600160401b03811182821017156105455761054561050e565b60405290565b604051601f8201601f191681016001600160401b03811182821017156105735761057361050e565b604052919050565b5f82601f83011261058a575f5ffd5b8151602083015f806001600160401b038411156105a9576105a961050e565b50601f8301601f19166020016105be8161054b565b9150508281528583830111156105d2575f5ffd5b8282602083015e5f92810160200192909252509392505050565b805160058110610509575f5ffd5b80518015158114610509575f5ffd5b5f5f5f5f5f60a0868803121561061d575f5ffd5b610626866104f3565b9450610634602087016104f3565b9350610642604087016104f3565b9250610650606087016104f3565b60808701519092506001600160401b0381111561066b575f5ffd5b8601601f8101881361067b575f5ffd5b80516001600160401b038111156106945761069461050e565b8060051b6106a46020820161054b565b9182526020818401810192908101908b8411156106bf575f5ffd5b6020850192505b838310156107ed5782516001600160401b038111156106e3575f5ffd5b8501610120818e03601f190112156106f9575f5ffd5b610701610522565b60208201516001600160401b03811115610719575f5ffd5b6107288f60208386010161057b565b82525060408201516001600160401b03811115610743575f5ffd5b6107528f60208386010161057b565b6020830152506060820151604082015261076e608083016104f3565b606082015260a08201516001600160401b0381111561078b575f5ffd5b61079a8f60208386010161057b565b60808301525060c082015160a08201526107b660e083016105ec565b60c08201526107c861010083016105fa565b60e08201526101209190910151610100820152825260209283019291909101906106c6565b80955050505050509295509295909350565b634e487b7160e01b5f52603260045260245ffd5b8082018082111561083257634e487b7160e01b5f52601160045260245ffd5b92915050565b600181811c9082168061084c57607f821691505b60208210810361086a57634e487b7160e01b5f52602260045260245ffd5b50919050565b601f8211156108b757805f5260205f20601f840160051c810160208510156108955750805b601f840160051c820191505b818110156108b4575f81556001016108a1565b50505b505050565b81516001600160401b038111156108d5576108d561050e565b6108e9816108e38454610838565b84610870565b6020601f82116001811461091b575f83156109045750848201515b5f19600385901b1c1916600184901b1784556108b4565b5f84815260208120601f198516915b8281101561094a578785015182556020948501946001909201910161092a565b508482101561096757868401515f19600387901b60f8161c191681555b50505050600190811b01905550565b634e487b7160e01b5f52602160045260245ffd5b61183b806109975f395ff3fe608060405234801561000f575f5ffd5b5060043610610106575f3560e01c80639a82a09a1161009e578063d7e84fbf1161006e578063d7e84fbf14610217578063d82d7d801461022a578063e89e4ed61461023d578063fc0c546a14610265578063fe25e00a14610278575f5ffd5b80639a82a09a146101c6578063d3277a30146101e3578063d45b000714610205578063d62aad291461020d575f5ffd5b806334b25ee2116100d957806334b25ee21461018457806345d30a1714610197578063644c92a4146101a05780638c8f95fb146101b3575f5ffd5b8063041ae8801461010a5780631a39d8ef14610139578063200d2ed214610150578063317debf51461016f575b5f5ffd5b5f5461011c906001600160a01b031681565b6040516001600160a01b0390911681526020015b60405180910390f35b61014260045481565b604051908152602001610130565b60065461016290610100900460ff1681565b60405161013091906114f7565b61018261017d366004611511565b61028b565b005b610182610192366004611535565b6104b6565b61014260055481565b6101826101ae366004611511565b610744565b6101826101c1366004611511565b610acd565b6006546101d39060ff1681565b6040519015158152602001610130565b6101d36101f1366004611563565b60086020525f908152604090205460ff1681565b610182610c1c565b6101426202a30081565b60015461011c906001600160a01b031681565b610182610238366004611511565b610ee4565b61025061024b366004611511565b6110b6565b604051610130999897969594939291906115be565b60025461011c906001600160a01b031681565b60035461011c906001600160a01b031681565b6102936112b9565b6001546001600160a01b031633146102e05760405162461bcd60e51b815260206004820152600b60248201526a2737ba10313ab4b63232b960a91b60448201526064015b60405180910390fd5b5f600654610100900460ff1660038111156102fd576102fd6114e3565b1461031a5760405162461bcd60e51b81526004016102d790611648565b600754811061033b5760405162461bcd60e51b81526004016102d79061166c565b5f6007828154811061034f5761034f611693565b5f918252602090912060089091020190506001600682015460ff16600481111561037b5761037b6114e3565b146103b65760405162461bcd60e51b815260206004820152600b60248201526a139bdd0818db185a5b595960aa1b60448201526064016102d7565b6202a30081600701546103c991906116bb565b4210156104085760405162461bcd60e51b815260206004820152600d60248201526c57696e646f772061637469766560981b60448201526064016102d7565b60068101805460ff19166002908117909155810154600580545f9061042e9084906116bb565b90915550506001546002808301549054610456926001600160a01b03918216929116906112d4565b817f9e069181c12760c2cd0078ed4facdbe1f3614543b0fbff5dbcac3cbc61a0b64e826002015460405161048c91815260200190565b60405180910390a261049c61130e565b506104b360015f5160206117e65f395f51905f5255565b50565b6104be6112b9565b6003546001600160a01b031633146105065760405162461bcd60e51b815260206004820152600b60248201526a2737ba1030b93134ba32b960a91b60448201526064016102d7565b6003600654610100900460ff166003811115610524576105246114e3565b146105605760405162461bcd60e51b815260206004820152600c60248201526b139bdd08191a5cdc1d5d195960a21b60448201526064016102d7565b60075482106105815760405162461bcd60e51b81526004016102d79061166c565b5f6007838154811061059557610595611693565b5f918252602090912060089091020190506003600682015460ff1660048111156105c1576105c16114e3565b146106075760405162461bcd60e51b8152602060048201526016602482015275135a5b195cdd1bdb99481b9bdd08191a5cdc1d5d195960521b60448201526064016102d7565b81156106d45760068101805460ff19166002908117909155810154600580545f906106339084906116bb565b9091555050600154600280830154905461065b926001600160a01b03918216929116906112d4565b6040516001815283907f5a87909bff68caaaaf0b3fd9c74eeccc928832f879315e5c6fb7a73612f26c0c9060200160405180910390a2827f9e069181c12760c2cd0078ed4facdbe1f3614543b0fbff5dbcac3cbc61a0b64e82600201546040516106c791815260200190565b60405180910390a2610716565b60068101805460ff191690556040515f815283907f5a87909bff68caaaaf0b3fd9c74eeccc928832f879315e5c6fb7a73612f26c0c9060200160405180910390a25b6006805461ff001916905561072961130e565b5061074060015f5160206117e65f395f51905f5255565b5050565b61074c6112b9565b6001546001600160a01b031633146107945760405162461bcd60e51b815260206004820152600b60248201526a2737ba10313ab4b63232b960a91b60448201526064016102d7565b5f600654610100900460ff1660038111156107b1576107b16114e3565b146107ce5760405162461bcd60e51b81526004016102d790611648565b60075481106107ef5760405162461bcd60e51b81526004016102d79061166c565b5f6007828154811061080357610803611693565b5f918252602082206008909102019150600682015460ff16600481111561082c5761082c6114e3565b146108675760405162461bcd60e51b815260206004820152600b60248201526a4e6f742070656e64696e6760a81b60448201526064016102d7565b6005810154158061087c575080600501544211155b6108b25760405162461bcd60e51b8152602060048201526007602482015266115e1c1a5c995960ca1b60448201526064016102d7565b600381015460405163473b057f60e11b81525f916001600160a01b031690638e760afe906108e6906004808701910161170c565b602060405180830381865afa92505050801561091f575060408051601f3d908101601f1916820190925261091c918101906117b7565b60015b156109275790505b8015610a085760068201805460ff19166002908117909155820154600580545f906109539084906116bb565b9091555050600154600280840154905461097b926001600160a01b03918216929116906112d4565b6001546040516001600160a01b03909116815283907fadc6ec3d7e25c1c9513853e552dd8d339c24b4025dd93b5a6fee5156aadcd5ad9060200160405180910390a2827f9e069181c12760c2cd0078ed4facdbe1f3614543b0fbff5dbcac3cbc61a0b64e83600201546040516109f391815260200190565b60405180910390a2610a0361130e565b610ab5565b6006820154610100900460ff1615610a775760068201805460ff19166001908117909155426007840155546040516001600160a01b03909116815283907fadc6ec3d7e25c1c9513853e552dd8d339c24b4025dd93b5a6fee5156aadcd5ad9060200160405180910390a2610ab5565b60405162461bcd60e51b815260206004820152601360248201527215995c9a599a58d85d1a5bdb8819985a5b1959606a1b60448201526064016102d7565b50506104b360015f5160206117e65f395f51905f5255565b610ad56112b9565b5f546001600160a01b03163314610b1b5760405162461bcd60e51b815260206004820152600a6024820152692737ba10333ab73232b960b11b60448201526064016102d7565b5f600654610100900460ff166003811115610b3857610b386114e3565b14610b555760405162461bcd60e51b81526004016102d790611648565b6004548114610b9d5760405162461bcd60e51b8152602060048201526014602482015273125b9d985b1a59081d1bdd185b08185b5bdd5b9d60621b60448201526064016102d7565b600254610bb5906001600160a01b031633308461133a565b5f54600154600454604080516001600160a01b03948516815293909216602084015282820152517f78da7430b15648a5954de6bf3f6dc65a9eb64c292537d89a2a9989fdd36799239181900360600190a16104b360015f5160206117e65f395f51905f5255565b610c246112b9565b5f600654610100900460ff166003811115610c4157610c416114e3565b14610c5e5760405162461bcd60e51b81526004016102d790611648565b5f546001600160a01b0316331480610c8057506001546001600160a01b031633145b610cbe5760405162461bcd60e51b815260206004820152600f60248201526e139bdd081c185c9d1a58da5c185b9d608a1b60448201526064016102d7565b5f5b600754811015610d8d575f60078281548110610cde57610cde611693565b5f91825260209091206006600890920201015460ff166004811115610d0557610d056114e3565b1480610d4a5750600460078281548110610d2157610d21611693565b5f91825260209091206006600890920201015460ff166004811115610d4857610d486114e3565b145b610d855760405162461bcd60e51b815260206004820152600c60248201526b10db185a5b5cc8195e1a5cdd60a21b60448201526064016102d7565b600101610cc0565b5060015f805b600754811015610e49575f60078281548110610db157610db1611693565b5f91825260209091206006600890920201015460ff166004811115610dd857610dd86114e3565b03610e41575f60078281548110610df157610df1611693565b905f5260205f209060080201600501541115610e3d576001915060078181548110610e1e57610e1e611693565b905f5260205f209060080201600501544211610e38575f92505b610e41565b5f92505b600101610d93565b505f818015610e555750825b90508015610e6a57610e65611376565b610ec9565b335f90815260086020526040808220805460ff1916600117905581546001600160a01b0316825290205460ff168015610ebc57506001546001600160a01b03165f9081526008602052604090205460ff165b15610ec957610ec9611376565b505050610ee260015f5160206117e65f395f51905f5255565b565b5f546001600160a01b03163314610f2a5760405162461bcd60e51b815260206004820152600a6024820152692737ba10333ab73232b960b11b60448201526064016102d7565b5f600654610100900460ff166003811115610f4757610f476114e3565b14610f645760405162461bcd60e51b81526004016102d790611648565b6007548110610f855760405162461bcd60e51b81526004016102d79061166c565b5f60078281548110610f9957610f99611693565b5f918252602090912060089091020190506001600682015460ff166004811115610fc557610fc56114e3565b146110005760405162461bcd60e51b815260206004820152600b60248201526a139bdd0818db185a5b595960aa1b60448201526064016102d7565b6202a300816007015461101391906116bb565b4211156110525760405162461bcd60e51b815260206004820152600d60248201526c15da5b991bddc81c185cdcd959609a1b60448201526064016102d7565b6006818101805460ff19166003179055805461030061ff00199091161790555f546040516001600160a01b03909116815282907f7f6241b75cbcd4b8285191647d52aaab3d20b6e419f5c8e511f1d05ac3eae9b89060200160405180910390a25050565b600781815481106110c5575f80fd5b905f5260205f2090600802015f91509050805f0180546110e4906116d4565b80601f0160208091040260200160405190810160405280929190818152602001828054611110906116d4565b801561115b5780601f106111325761010080835404028352916020019161115b565b820191905f5260205f20905b81548152906001019060200180831161113e57829003601f168201915b505050505090806001018054611170906116d4565b80601f016020809104026020016040519081016040528092919081815260200182805461119c906116d4565b80156111e75780601f106111be576101008083540402835291602001916111e7565b820191905f5260205f20905b8154815290600101906020018083116111ca57829003601f168201915b5050505060028301546003840154600485018054949592946001600160a01b03909216935090611216906116d4565b80601f0160208091040260200160405190810160405280929190818152602001828054611242906116d4565b801561128d5780601f106112645761010080835404028352916020019161128d565b820191905f5260205f20905b81548152906001019060200180831161127057829003601f168201915b505050600584015460068501546007909501549394909360ff8083169450610100909204909116915089565b6112c16113e5565b60025f5160206117e65f395f51905f5255565b6112e18383836001611414565b61130957604051635274afe760e01b81526001600160a01b03841660048201526024016102d7565b505050565b600454600554148015611324575060065460ff16155b15610ee2576006805461ff001916610100179055565b611348848484846001611476565b61137057604051635274afe760e01b81526001600160a01b03851660048201526024016102d7565b50505050565b6006805461ffff19166102011790556005546004545f91611396916117d2565b905080156113ba575f546002546113ba916001600160a01b039182169116836112d4565b6040517f6e3be9294e58d10b9c8053cfd5e09871b67e442fe394d6b0870d336b9df984a9905f90a150565b5f5160206117e65f395f51905f5254600203610ee257604051633ee5aeb560e01b815260040160405180910390fd5b60405163a9059cbb60e01b5f8181526001600160a01b038616600452602485905291602083604481808b5af1925060015f5114831661146a57838315161561145e573d5f823e3d81fd5b5f873b113d1516831692505b60405250949350505050565b6040516323b872dd60e01b5f8181526001600160a01b038781166004528616602452604485905291602083606481808c5af1925060015f511483166114d25783831516156114c6573d5f823e3d81fd5b5f883b113d1516831692505b604052505f60605295945050505050565b634e487b7160e01b5f52602160045260245ffd5b602081016004831061150b5761150b6114e3565b91905290565b5f60208284031215611521575f5ffd5b5035919050565b80151581146104b3575f5ffd5b5f5f60408385031215611546575f5ffd5b82359150602083013561155881611528565b809150509250929050565b5f60208284031215611573575f5ffd5b81356001600160a01b0381168114611589575f5ffd5b9392505050565b5f81518084528060208401602086015e5f602082860101526020601f19601f83011685010191505092915050565b61012081525f6115d261012083018c611590565b82810360208401526115e4818c611590565b604084018b90526001600160a01b038a1660608501528381036080850152905061160e8189611590565b9150508560a083015260058510611627576116276114e3565b60c082019490945291151560e0830152610100909101529695505050505050565b6020808252600a90820152694e6f742061637469766560b01b604082015260600190565b6020808252600d908201526c092dcecc2d8d2c840d2dcc8caf609b1b604082015260600190565b634e487b7160e01b5f52603260045260245ffd5b634e487b7160e01b5f52601160045260245ffd5b808201808211156116ce576116ce6116a7565b92915050565b600181811c908216806116e857607f821691505b60208210810361170657634e487b7160e01b5f52602260045260245ffd5b50919050565b602081525f5f83545f8160011c9050600182168061172b57607f821691505b60208210810361174957634e487b7160e01b5f52602260045260245ffd5b6020860182905260408601818015611768576001811461177e576117aa565b60ff198516825283151560051b820195506117aa565b5f898152602090205f5b858110156117a457815484820152600190910190602001611788565b83019650505b5093979650505050505050565b5f602082840312156117c7575f5ffd5b815161158981611528565b818103818111156116ce576116ce6116a756fe9b779b17422d0df92223018b32b4d1fa46e071723d6817e2486d003becc55f00a26469706673582212200c14f21599fa4cdccea0a2d3ebc7963f6f6c16b640918d32de87bf917bf4241064736f6c634300081c0033","linkReferences":{}},"methodIdentifiers":{"CHALLENGE_WINDOW()":"d62aad29","arbiter()":"fe25e00a","builder()":"d7e84fbf","cancelApproved(address)":"d3277a30","cancelEscrow()":"d45b0007","cancelled()":"9a82a09a","claimMilestone(uint256)":"644c92a4","disputeMilestone(uint256)":"d82d7d80","funder()":"041ae880","lockFunds(uint256)":"8c8f95fb","milestones(uint256)":"e89e4ed6","releaseMilestone(uint256)":"317debf5","releasedAmount()":"45d30a17","resolveDispute(uint256,bool)":"34b25ee2","status()":"200d2ed2","token()":"fc0c546a","totalAmount()":"1a39d8ef"},"id":33}