{"abi":[{"type":"function","name":"getVerifierType","inputs":[],"outputs":[{"name":"","type":"string","internalType":"string"}],"stateMutability":"pure"},{"type":"function","name":"verify","inputs":[{"name":"params","type":"bytes","internalType":"bytes"}],"outputs":[{"name":"","type":"bool","internalType":"bool"}],"stateMutability":"view"}],"bytecode":{"object":"0x6080604052348015600e575f5ffd5b506101bf8061001c5f395ff3fe608060405234801561000f575f5ffd5b5060043610610034575f3560e01c80633521162b146100385780638e760afe14610074575b5f5ffd5b604080518082018252601181527010d3d395149050d517d111541313d65151607a1b6020820152905161006b91906100b9565b60405180910390f35b6100876100823660046100ee565b610097565b604051901515815260200161006b565b5f806100a58385018561015c565b6001600160a01b03163b1515949350505050565b602081525f82518060208401528060208501604085015e5f604082850101526040601f19601f83011684010191505092915050565b5f5f602083850312156100ff575f5ffd5b823567ffffffffffffffff811115610115575f5ffd5b8301601f81018513610125575f5ffd5b803567ffffffffffffffff81111561013b575f5ffd5b85602082840101111561014c575f5ffd5b6020919091019590945092505050565b5f6020828403121561016c575f5ffd5b81356001600160a01b0381168114610182575f5ffd5b939250505056fea2646970667358221220f6eab4a6f23bdc34cb0c172d7f7812dec11f9120da6dc92a60e172b4959f302964736f6c634300081c0033","linkReferences":{}},"methodIdentifiers":{"getVerifierType()":"3521162b","verify(bytes)":"8e760afe"},"id":36}