{"abi":[{"type":"function","name":"getVerifierType","inputs":[],"outputs":[{"name":"","type":"string","internalType":"string"}],"stateMutability":"pure"},{"type":"function","name":"verify","inputs":[{"name":"params","type":"bytes","internalType":"bytes"}],"outputs":[{"name":"","type":"bool","internalType":"bool"}],"stateMutability":"view"}],"bytecode":{"object":"0x6080604052348015600e575f5ffd5b506102d28061001c5f395ff3fe608060405234801561000f575f5ffd5b5060043610610034575f3560e01c80633521162b146100385780638e760afe1461006b575b5f5ffd5b6040805180820182526008815267151617d0d3d5539560c21b602082015290516100629190610176565b60405180910390f35b61007e6100793660046101ab565b61008e565b6040519015158152602001610062565b5f80808061009e85870187610219565b60408051600481526024810182526020810180516001600160e01b03166001600160e01b03198516179052905193965091945092505f9182916001600160a01b038716916100ec919061026f565b5f60405180830381855afa9150503d805f8114610124576040519150601f19603f3d011682016040523d82523d5f602084013e610129565b606091505b509150915081158061013c575060208151105b1561014e575f95505050505050610170565b5f818060200190518101906101639190610285565b9490941015955050505050505b92915050565b602081525f82518060208401528060208501604085015e5f604082850101526040601f19601f83011684010191505092915050565b5f5f602083850312156101bc575f5ffd5b823567ffffffffffffffff8111156101d2575f5ffd5b8301601f810185136101e2575f5ffd5b803567ffffffffffffffff8111156101f8575f5ffd5b856020828401011115610209575f5ffd5b6020919091019590945092505050565b5f5f5f6060848603121561022b575f5ffd5b83356001600160a01b0381168114610241575f5ffd5b92506020840135915060408401356001600160e01b031981168114610264575f5ffd5b809150509250925092565b5f82518060208501845e5f920191825250919050565b5f60208284031215610295575f5ffd5b505191905056fea26469706673582212209c2531c7646c013c2426d3c7f1309cc0bc9dd4651f04e973b02f83626387bfc464736f6c634300081c0033","linkReferences":{}},"methodIdentifiers":{"getVerifierType()":"3521162b","verify(bytes)":"8e760afe"},"id":39}